:100000005CC0000081C000007FC000007DC0000017
:100010007BC0000079C0000077C0000075C0000000
:1000200073C0000071C000006FC000006DC0000010
:100030006BC000002CC5000067C0000065C0000058
:10004000AEC7000061C000000C94860A0C94B80A88
:100050005BC0000059C0000057C0000055C0000040
:1000600053C0000051C00000000000080002010061
:100070000003040700000000000000000102040863
:100080001020408001020408102001020408102002
:10009000040404040404040402020202020203032E
:1000A0000303030300000000250028002B000000CC
:1000B0000000240027002A00DD0A11241FBECFEF14
:1000C000D8E0DEBFCDBF11E0A0E0B1E0E2ECF6E1A8
:1000D00002C005900D92A234B107D9F722E0A2E444
:1000E000B1E001C01D92AD36B207E1F710E0CDE5F9
:1000F000D0E004C02197FE010E94590BCC35D107F6
:10010000C9F727D50C945F0B7BCFCF93DF93882360
:1001100041F0EB018150C8D799838883DF91CF915B
:100120000895FB0111821082F9CF0F931F938B0169
:100130009C0183E036952795179507958A95D1F709
:10014000055B1E4F462F477021E030E0F90102C0E9
:10015000EE0FFF1F4A95E2F7AF01F801208124233B
:10016000CB010196211102C090E080E01F910F9118
:1001700008950F931F938B019C0183E0369527957B
:10018000179507958A95D1F7677081E090E001C0D7
:10019000880F6A95EAF7F801E55BFE4F2081452B51
:1001A00031F48095822380831F910F910895822BD3
:1001B000FACFCF92DF92EF92FF92CF93DF936B0152
:1001C0007C0160E08EE0C816D104E104F10490F4F3
:1001D0008EE08C0D0E94F308E6012196AE01C70166
:1001E000B601C7DFCE01DF91CF91FF90EF90DF9096
:1001F000CF9008958C2DEECF882341F08150682F49
:1002000070E090E080E050E040E0B3CF08956111ED
:1002100001C0E9C76130E9F362E0FBCF662319F062
:1002200061E00C942F0960E0FCCFCF92DF92EF9257
:10023000FF92CF93882331F16A017B01CFEFC80F82
:1002400020E030E0A901CB01B601BAD487FF10C08D
:10025000C701B6019058BDD49B01AC016C2F70E072
:1002600090E080E0CF91FF90EF90DF90CF90ACC016
:10027000C701B601A9D48C2FCF91FF90EF90DF90EA
:10028000CF902DC7CF91FF90EF90DF90CF90089542
:100290000F931F938B019C0183E03695279517954B
:1002A00007958A95D1F70E5B1E4F462F477021E0C8
:1002B00030E0F90102C0EE0FFF1F4A95E2F7AF01EF
:1002C000F80120812423CB010196211102C090E086
:1002D00080E01F910F9108950F931F938B019C0154
:1002E00083E036952795179507958A95D1F767701E
:1002F00081E090E001C0880F6A95EAF7F801EE5BB3
:10030000FE4F2081452B31F48095822380831F91FD
:100310000F910895822BFACF2F923F924F925F92C6
:100320006F927F928F929F92AF92BF92CF92DF9205
:10033000EF92FF920F931F93CF93DF93D62EC72E8A
:10034000782E692E49015A01280161E08D2D4BD785
:10035000CD2DDC2D8E010F5F1F4FA8016D2D7C2D43
:10036000872D962DB9DF20E030E0A901C201B70149
:1003700098D5181654F4C201B7012BD42B01C5012E
:10038000B40127D4A201CE0122D0C801DF91CF91C0
:100390001F910F91FF90EF90DF90CF90BF90AF90A3
:1003A0009F908F907F906F905F904F903F902F9095
:1003B0000895882341F08150682F70E090E080E03C
:1003C00050E040E089CF0895862FB90188C69C018E
:1003D000FC01E859FF4FE491E33059F138F4E13082
:1003E00009F1E23019F160E0822F39C7E730C1F13D
:1003F000E83009F441C0E430B1F7809180008C7F8F
:1004000082608093800090918100907E9061692B42
:100410006093810050938700409386008091800014
:1004200080621BC084B5806884BDDDCF84B58062E6
:10043000FBCF809180008C7F8260809380009091C0
:100440008100907E9061692B6093810050938700BA
:100450004093860080918000806880938000C3CFA5
:100460008091B00080688093B0008091B100887F57
:10047000682B6093B100B7CF8091B0008062F3CF5A
:10048000CF92DF92EF92FF921F93CF93DF9300D032
:10049000CDB7DEB7C0902001D0902101E0902201BD
:1004A000F0902301A7019601609107027091080264
:1004B0008091090290910A0283D3882341F0C0926F
:1004C0000702D0920802E0920902F0920A026FE05D
:1004D00070E080E090E029DE9093060280930502B0
:1004E00043E050E0BE016F5F7F4F0FDE6BE070E0D6
:1004F00080E090E0CDDE90935202809351026981BA
:100500007A8190E080E091D32091240130912501FF
:100510004091260150912701C8D4C4D36B017C01BE
:10052000AAD28111CEC0C701B60162D28111C9C061
:1005300020E030E040E853E4C701B601CDD36B01C1
:100540007C0120E030E0A9013BD387FFBDC0C7019B
:10055000B60190583ED3619570E090E080E067D39B
:10056000AB01BC0180915102909152025EDE698123
:100570007A8190E080E059D32091280130912901BF
:1005800040912A0150912B0190D46B017C0111E024
:10059000AC019B0160910001709101018091020109
:1005A000909103010DD318160CF410E0612F8AE02E
:1005B00035DE11E0A70196016091040170910501FB
:1005C0008091060190910701FBD218160CF410E0FF
:1005D000612F89E023DE11E0A701960160910801F7
:1005E0007091090180910A0190910B01E9D21816CE
:1005F0000CF410E0612F88E011DE11E0A7019601F4
:1006000060910C0170910D0180910E0190910F018C
:10061000D7D218160CF410E0612F87E0FFDD11E04F
:10062000A701960160911001709111018091120152
:1006300090911301C5D218160CF410E0612F86E0DA
:10064000EDDD11E0A7019601609114017091150193
:100650008091160190911701B3D218160CF410E096
:10066000612F85E0DBDD11E0A701960160911801A3
:100670007091190180911A0190911B01A1D2181655
:100680000CF410E0612F84E0C9DD11E0A7019601B0
:1006900060911C0170911D0180911E0190911F01BC
:1006A0008FD218160CF410E0612F83E0B7DD0F90A5
:1006B0000F90DF91CF911F91FF90EF90DF90CF903F
:1006C0000895C12CD12C7601C701B60182D244CF46
:1006D0004F925F926F927F92AF92BF92DF92EF92B2
:1006E000FF920F931F93CF93DF9384E090E049D163
:1006F000CFEFD1E018828091200190912101A0914B
:100700002201B091230188879987AA87BB871D8220
:10071000412C512C3201439449825A826B827C8253
:100720006FE070E080E090E044DD9F838E83DD2405
:10073000D394DD8210924B0290E5A92E92E0B92E5F
:10074000F501108240924C0250924D0260924E028E
:1007500070924F02E12CF12C8701A80197016BE008
:1007600070E080E090E0D8DD9093520280935102D7
:10077000F501D08210924302409244025092450209
:10078000609246027092470261E08AE040DDD092BA
:1007900048021CAE40923C0250923D0260923E02E2
:1007A00070923F0261E089E032DDD09240021CAAE3
:1007B0004DAA5EAA6FAA78AE61E088E028DDD9AEC6
:1007C0001CA64DA65EA66FA678AA61E087E01FDD95
:1007D000D9AA1CA24DA25EA26FA278A661E086E013
:1007E00016DDD9A61C8E4D8E5E8E6F8E78A261E0CE
:1007F00085E00DDDD9A21C8A4D8A5E8A6F8A788ECB
:1008000061E084E004DDD98E1C864D865E866F86AD
:10081000788A61E083E0FBDCD98ADF91CF911F9178
:100820000F91FF90EF90DF90BF90AF907F906F900F
:100830005F904F9008958091FF0181111DC081E06C
:100840008093FF018091000290910102A091020229
:10085000B09103020197A105B10571F480910402E2
:10086000882351F06FE070E080E090E05EDC9093D0
:10087000060280930502C0DC80914B0281112AC0E0
:1008800081E080934B0280914C0290914D02A091A7
:100890004E02B0914F020197A105B105D9F48091A4
:1008A00050028823B9F06BE070E080E090E0F0DC6B
:1008B000909352028093510240E050E0BA01B5DCBF
:1008C0006BE070E080E090E0E3DC90935202809374
:1008D00051026FDD80914302811103C081E080935A
:1008E000430280913B02811103C081E080933B026F
:1008F00080913302811103C081E0809333028091A3
:100900002B02811103C081E080932B02809123028E
:10091000811103C081E08093230280911B02811129
:1009200003C081E080931B0280911302811103C0F8
:1009300081E08093130280910B02811103C081E05A
:1009400080930B02089560E070E080E89FE70895CF
:1009500060E070E080E89FE7089560E070E080E884
:100960009FEF089560E070E080E89FEF089560E0F9
:1009700070E080EC9FEF089560E070E080EC9FEF06
:100980000895F5DF60935F027093600280936102C7
:1009900090936202F1DF609353027093540280934C
:1009A000550290935602CFDF60935B0270935C0216
:1009B00080935D0290935E02CBDF60935702709349
:1009C00058028093590290935A02C7DF60936302E2
:1009D000709364028093650290936602C3DF609314
:1009E0006702709368028093690290936A02089587
:1009F000CF92DF92EF92FF92CF936B017C01AC011B
:100A00009B0160915B0270915C0280915D0290910C
:100A10005E02D6D0C1E0882369F0A70196016091FB
:100A20006302709164028091650290916602C8D061
:100A30008111C0E08C2FCF91FF90EF90DF90CF908D
:100A400008950F931F938B019C0100271127207895
:100A50003F770115110520483F4749F4AB01BC0120
:100A60006F77772781E0452B462B472B09F480E0F1
:100A70001F910F910895E5CF40E855E260E070E0E6
:100A800090E080E000C026E082E691E0DFC41F92A3
:100A90000F920FB60F9211242F933F934F935F93B2
:100AA0006F937F938F939F93AF93BF93EF93FF9336
:100AB00086E09FEF909385008093840032D0FF9171
:100AC000EF91BF91AF919F918F917F916F915F91C6
:100AD0004F913F912F910F900FBE0F901F9018953F
:100AE00086E09FEF9093850080938400AFE6B0E0AE
:100AF0008C918E7F8C93E0E8F0E080818C7F808306
:100B0000E1E8F0E08081877E80838081836080835C
:100B100080818B7F80838C9181608C93089581E0AC
:100B200008958091560191E0980F90935601882383
:100B300049F021E030E03093580120935701809331
:100B40005601089578949CDCF89480915601815068
:100B5000F6CFCF93DF9310926C0210926B0269D2A2
:100B60008BDFC0912D01D0912E0119821882B0DD4A
:100B7000F894B6DF81E028813981232B09F080E0E9
:100B800080936B027894789480916B02811107C0F6
:100B900052DEF89490E080E0DF91CF91089581E0FB
:100BA00028813981232B09F480E080936C02909195
:100BB0006C0281E0911180E080936B02B0DFE4CFA2
:100BC000D2D008F481E0089504D06894B11163C1D3
:100BD00008952FD188F09F5790F0B92F9927B751DA
:100BE000A0F0D1F0660F771F881F991F1AF0BA95F1
:100BF000C9F712C0B13081F04DD1B1E008954AC1BA
:100C0000672F782F8827B85F39F0B93FCCF38695E6
:100C100077956795B395D9F73EF490958095709543
:100C200061957F4F8F4F9F4F0895E89409C097FBC0
:100C30003EF490958095709561957F4F8F4F9F4FB3
:100C40009923A9F0F92F96E9BB279395F6958795F7
:100C500077956795B795F111F8CFFAF4BB0F11F4BA
:100C600060FF1BC06F5F7F4F8F4F9F4F16C0882361
:100C700011F096E911C0772321F09EE8872F762F97
:100C800005C0662371F096E8862F70E060E02AF0D8
:100C90009A95660F771F881FDAF7880F96958795C4
:100CA00097F90895E0D080F09F3740F491110EF04D
:100CB000F2C060E070E080E89FEB089526F41B1618
:100CC000611D711D811D73C08DC09DD018F011F084
:100CD000A1D038F495C0DFC0E92FA3D0B0F35523DD
:100CE000C9F3E7FB6217730784079507A8F199F327
:100CF000E92FFF2788232AF03197660F771F881F77
:100D0000DAF7952F5527442332F091505040220FA7
:100D1000331F441FD2F7BB27E91BF50B621B730B74
:100D2000840BB109C1F222F4620F731F841FB11D3D
:100D300031972AF0660F771F881FBB1FEFCF9150A6
:100D400050405AF041F0882332F0660F771F881F19
:100D500091505040C1F7939545C08695779567951A
:100D60009F5FD9F7F8CF990F0008550FAA0BE0E85D
:100D7000FEEF16161706E807F907C0F0121613065D
:100D8000E407F50798F0621B730B840B950B39F49D
:100D90000A2661F0232B242B252B21F408950A2603
:100DA00009F4A140A6958FEF811D811D0895882328
:100DB00071F4772321F09850872B762F07C0662394
:100DC00011F499270DC09051862B70E060E02AF055
:100DD0009A95660F771F881FDAF7880F9695879583
:100DE00097F908959F3F31F0915020F487957795BA
:100DF0006795B795880F911D9695879597F90895F2
:100E00009FEF80EC089500240A9416161706180622
:100E10000906089500240A941216130614060506FE
:100E2000089557FD9058440F551F59F05F3F71F0DA
:100E30004795880F97FB991F61F09F3F79F0879541
:100E40000895121613061406551FF2CF4695F1DFCA
:100E500008C0161617061806991FF1CF869571055A
:100E6000610508940895E5DFA0F0BEE7B91788F49E
:100E7000BB279F3860F41616B11D672F782F88277F
:100E8000985FF7CF869577956795B11D93959639BD
:100E9000C8F30895E894BB2766277727CB0197F915
:100EA000089561DF08F48FEF08950BD067C0ABDFC2
:100EB00028F0B0DF18F0952309F05AC0A1CF112413
:100EC000EACFAFDFA0F3959FD1F3950F50E0551F08
:100ED000629FF001729FBB27F00DB11D639FAA278F
:100EE000F00DB11DAA1F649F6627B00DA11D661FDE
:100EF000829F2227B00DA11D621F739FB00DA11DFF
:100F0000621F839FA00D611D221F749F3327A00DB8
:100F1000611D231F849F600D211D822F762F6A2F54
:100F200011249F5750408AF0E1F088234AF0EE0FD9
:100F3000FF1FBB1F661F771F881F91505040A9F7E6
:100F40009E3F510570F014C0A6CF5F3FECF3983E72
:100F5000DCF3869577956795B795F795E7959F5F4D
:100F6000C1F7FE2B880F911D9695879597F90895E7
:100F700097F99F6780E870E060E00895092E039478
:100F8000000C11F4882352F0BB0F40F4BF2B11F476
:100F900060FF04C06F5F7F4F8F4F9F4F08951F9278
:100FA0000F920FB60F9211242F933F938F939F931D
:100FB000AF93BF9380915A0190915B01A0915C0126
:100FC000B0915D013091590123E0230F2D3758F581
:100FD0000196A11DB11D2093590180935A01909350
:100FE0005B01A0935C01B0935D0180915E019091E3
:100FF0005F01A0916001B09161010196A11DB11D39
:1010000080935E0190935F01A0936001B0936101B2
:10101000BF91AF919F918F913F912F910F900FBEF4
:101020000F901F90189526E8230F0296A11DB11D61
:10103000D2CF789484B5826084BD84B5816084BD4C
:1010400085B5826085BD85B5816085BDEEE6F0E041
:10105000808181608083E1E8F0E01082808182609D
:101060008083808181608083E0E8F0E0808181601E
:101070008083E1EBF0E0808184608083E0EBF0E04E
:10108000808181608083EAE7F0E0808184608083F2
:10109000808182608083808181608083808180689C
:1010A00080831092C10008958E3008F08E502091F8
:1010B0002C0190E4299F900111248770822B80934A
:1010C0007C0080917A00806480937A0080917A001D
:1010D00086FDFCCF809178009091790008951F9350
:1010E000CF93DF93182FEB0161E07DD0209731F48F
:1010F00060E0812FDF91CF911F91B1C0CF3FD1052B
:1011000011F461E0F6CFE12FF0E0E859FF4FE491F0
:10111000E33031F140F4E130B1F0E230E1F0C038D9
:10112000D1057CF7E5CFE73029F1E83059F1E4301B
:10113000B1F780918000806280938000D0938B0013
:10114000C0938A0004C084B5806884BDC7BDDF91A8
:10115000CF911F91089584B5806284BDC8BDF7CF3B
:1011600080918000806880938000D0938900C09334
:101170008800EDCF8091B00080688093B000C0936C
:10118000B300E5CF8091B00080628093B000C0933F
:10119000B400DDCF833081F028F4813099F08230C3
:1011A000A9F008958730A9F08830C9F08430B1F4EF
:1011B000809180008F7D03C0809180008F77809325
:1011C0008000089584B58F7784BD089584B58F7DA0
:1011D000FBCF8091B0008F778093B000089580910D
:1011E000B0008F7DF9CFCF93DF9390E0FC01E458FE
:1011F000FF4F249180579F4FFC0184918823C9F0B1
:1012000090E0880F991FFC01E255FF4FA591B49122
:10121000FC01EC55FF4FC591D49161110DC09FB7F2
:10122000F8948C91209582238C938881282328839D
:101230009FBFDF91CF910895623051F49FB7F8942A
:101240003C91822F809583238C93E8812E2BEFCFC6
:101250008FB7F894EC912E2B2C938FBFEACF1F936E
:10126000CF93DF93282F30E0F901E859FF4F8491A5
:10127000F901E458FF4FD491F901E057FF4FC491B1
:10128000CC23A1F0162F811185DFEC2FF0E0EE0FBB
:10129000FF1FEC55FF4FA591B4918FB7F894EC91D7
:1012A000111108C0D095DE23DC938FBFDF91CF9161
:1012B0001F910895DE2BF8CFFC01918D228D892F8F
:1012C00090E0805C9F4F821B91098F73992708954E
:1012D000FC01918D828D981731F0828DE80FF11D00
:1012E000858D90E008958FEF9FEF0895FC01918D1B
:1012F000828D981761F0A28DAE0FBF2FB11D5D9644
:101300008C91928D9F5F9F73928F90E008958FEFE5
:101310009FEF0895FC01538D448D252F30E0842FDD
:1013200090E0821B930B541710F0CF96089501970D
:101330000895FC01A48DA80FB92FB11DA35ABF4F6A
:101340002C91848D90E001968F739927848FA689C4
:10135000B7892C93A089B1898C91837080648C9318
:10136000938D848D981306C00288F389E02D8081C7
:101370008F7D80830895CF93DF93EC01888D882340
:10138000B1F0AA89BB89E889F9898C9185FD03C0F0
:10139000808186FD0CC00FB607FCF7CF8C9185FFCE
:1013A000F2CF808185FFEDCFCE01C3DFEACFDF91A1
:1013B000CF910895EF92FF920F931F93CF93DF93F6
:1013C000EC0181E0888F9B8D8C8D98131AC0E88981
:1013D000F989808185FF15C09FB7F894EE89FF8950
:1013E0006083E889F98980818370806480839FBFEE
:1013F00081E090E0DF91CF911F910F91FF90EF90EE
:101400000895F62E0B8D10E00F5F1F4F0F731127FD
:10141000E02E8C8D8E110BC00FB607FCFACFE88939
:10142000F989808185FFF5CFCE0183DFF2CFEB8D87
:10143000EC0FFD2FF11DE35AFF4FF0829FB7F89498
:101440000B8FEA89FB8980818062D0CFCF92DF92B7
:10145000EF92FF921F93CF93DF93EC016A017B0120
:10146000122FE889F98982E08083C11481EED806C1
:10147000E104F10499F060E079E08DE390E0A701E8
:101480009601F5D0215031094109510956954795EA
:1014900037952795211580E1380790F0E889F9897B
:1014A000108260E874E88EE190E0A7019601DFD039
:1014B000215031094109510956954795379527958E
:1014C000EC85FD853083EE85FF852083188EEC89C1
:1014D000FD891083EA89FB89808180618083EA89A4
:1014E000FB89808188608083EA89FB8980818068AC
:1014F0008083EA89FB8980818F7D8083DF91CF9112
:101500001F91FF90EF90DF90CF9008951F920F9260
:101510000FB60F9211242F938F939F93EF93FF9306
:10152000E0917201F09173018081E0917801F09176
:10153000790182FD1BC0908180917B018F5F8F7349
:1015400020917C01821741F0E0917B01F0E0EE599F
:10155000FE4F958F80937B01FF91EF919F918F912B
:101560002F910F900FBE0F901F9018958081F4CF90
:101570001F920F920FB60F9211242F933F934F9308
:101580005F936F937F938F939F93AF93BF93EF93EB
:10159000FF9382E691E0CDDEFF91EF91BF91AF9195
:1015A0009F918F917F916F915F914F913F912F917B
:1015B0000F900FBE0F901F901895E2E6F1E0138296
:1015C000128288EE93E0A0E0B0E084839583A68346
:1015D000B78383E391E09183808385EC90E09587E6
:1015E000848784EC90E09787868780EC90E0918BED
:1015F000808B81EC90E0938B828B82EC90E0958BDA
:10160000848B86EC90E0978B868B118E128E138ED6
:10161000148E0895AF92BF92CF92DF92EF92FF9215
:101620000F931F93CF93DF936C017B018B01040F0A
:10163000151FEB015E01AE18BF08C017D10759F0A6
:101640006991D601ED91FC910190F081E02DC601E8
:101650000995892B79F7C501DF91CF911F910F91E2
:10166000FF90EF90DF90CF90BF90AF900895A1E2F0
:101670001A2EAA1BBB1BFD010DC0AA1FBB1FEE1F0C
:10168000FF1FA217B307E407F50720F0A21BB30B57
:10169000E40BF50B661F771F881F991F1A9469F7D3
:1016A00060957095809590959B01AC01BD01CF012F
:1016B0000895EE0FFF1F0590F491E02D0994F89422
:0216C000FFCF5A
:1016C2000000C84200004843000096430000C8439F
:1016D2000000FA430000164400002F440000484472
:1016E200000080BFD03F7F3E0000803F01540100D8
:1016F200000000DA090A0B8A09BB095C097609684D
:021702000900DC
:00000001FF
