:1000000061C0000084C0000082C0000080C0000009
:100010007EC000007CC000007AC0000078C00000F4
:1000200076C0000074C0000072C0000070C0000004
:100030006EC0000057C300006AC0000068C0000026
:1000400009C5000064C000006EC700009EC7000024
:100050005EC000005CC000005AC0000058C0000034
:1000600056C0000054C0000000000008000201005B
:100070000003040700000000000000000102040863
:100080001020408001020408102001020408102002
:10009000040404040404040402020202020203032E
:1000A00003030303000000002300260029000000D2
:1000B0000000250028002B0000000000240027007D
:1000C0002A00EA0711241FBECFEFD8E0DEBFCDBF64
:1000D00011E0A0E0B1E0ECEDF0E102C005900D927E
:1000E000AC38B107D9F722E0ACE8B1E001C01D920D
:1000F000AF38B207E1F710E0C2E6D0E003C02197C5
:10010000FE01E4D7C136D107D1F74ED3E5C778CF8A
:10011000611101C04DC56130E9F362E0FBCF662398
:1001200011F061E081C560E0FDCFABD521E0019722
:1001300009F020E0822F08954F925F926F927F9294
:100140008F929F92AF92BF92CF92DF92EF92FF92E7
:10015000CF93DF93C0904101D0904201E0904301E2
:10016000F0904401A701960160914402709145020C
:100170008091460290914702B3D3882341F0C09208
:100180004402D0924502E0924602F092470282E099
:10019000CCDFD82FC0908802D0908902E0908A02EC
:1001A000F0908B02C701B601A1D32B013C01209135
:1001B000590130915A0140915B0150915C0190D3FB
:1001C00087FF27C1F7FC25C1809051019090520113
:1001D000A0905301B090540120E030E040E85FE38C
:1001E000609155017091560180915701909158018D
:1001F00012D39B01AC01C301B20128D487FD0DC10C
:10020000109288021092890210928A0210928B0238
:10021000A50194016BE372E081E090E0F5D1892BB8
:1002200091F1C0918C0284E0C89FF0011124E0504C
:10023000FF4FC080D180E280F3806D2F70E090E0AE
:1002400080E052D320914D0130914E0140914F01F9
:1002500050915001FBD318160CF0EDC0C09237023C
:10026000D0923802E0923902F0923A028091630112
:10027000C80FC0938C02809140018C1720F48091AC
:10028000610180938C02C1E0209120013091210115
:100290004091220150912301609137027091380200
:1002A0008091390290913A021BD38111C0E06C2FEA
:1002B0008AE035DFC1E02091240130912501409191
:1002C0002601509127016091370270913802809188
:1002D000390290913A0204D38111C0E06C2F89E079
:1002E0001EDFC1E0209128013091290140912A01AF
:1002F00050912B0160913702709138028091390240
:1003000090913A02EDD28111C0E06C2F88E007DFB6
:10031000C1E020912C0130912D0140912E0150918E
:100320002F016091370270913802809139029091CB
:100330003A02D6D28111C0E06C2F87E0F0DEC1E036
:1003400020913001309131014091320150913301BF
:1003500060913702709138028091390290913A028F
:10036000BFD28111C0E06C2F86E0D9DEC1E02091C0
:10037000340130913501409136015091370160913F
:100380003702709138028091390290913A02A8D2D6
:100390008111C0E06C2F85E0C2DEC1E02091380100
:1003A0003091390140913A0150913B0160913702FF
:1003B000709138028091390290913A0291D2811164
:1003C000C0E06C2F84E0ABDEC1E020913C013091B5
:1003D0003D0140913E0150913F0160913702709183
:1003E00038028091390290913A027AD28111C0E0AC
:1003F0006C2F83E0DF91CF91FF90EF90DF90CF9053
:10040000BF90AF909F908F907F906F905F904F9034
:1004100086CE812C912C5401DFCE8FEFC81AD80ADA
:10042000E80AF80AC0928802D0928902E0928A0211
:10043000F0928B02EDCEA70196016091450170917B
:1004400046018091470190914801E5D160933702C0
:10045000709338028093390290933A0207CFCF927B
:10046000DF92EF92FF921F93CF93DF9383E080930D
:100470003B02CCE3D2E08091620180938C028091B8
:10048000490190914A01A0914B01B0914C01809398
:10049000370290933802A0933902B0933A0218823F
:1004A0008091410190914201A0914301B09144019A
:1004B00088879987AA87BB87C12CD12C7601C394E2
:1004C000C982DA82EB82FC8262E082E021DE11E006
:1004D0001D8310928002C0928102D0928202E0922B
:1004E0008302F092840261E08AE012DE10938502BA
:1004F0001CAEC0927902D0927A02E0927B02F09216
:100500007C0261E089E004DE10937D021CAACDAA82
:10051000DEAAEFAAF8AE61E088E0FADD19AF1CA60A
:10052000CDA6DEA6EFA6F8AA61E087E0F1DD19AB63
:100530001CA2CDA2DEA2EFA2F8A661E086E0E8DD73
:1005400019A71C8ECD8EDE8EEF8EF8A261E085E0BD
:10055000DFDD19A31C8ACD8ADE8AEF8AF88E61E07E
:1005600084E0D6DD198F1C86CD86DE86EF86F88A7C
:1005700061E083E0CDDD198BDF91CF911F91FF907A
:10058000EF90DF90CF90089580913C02811103C0DD
:1005900081E080933C0280918002811103C081E060
:1005A0008093800280917802811103C081E0809362
:1005B000780280917002811103C081E08093700203
:1005C00080916802811103C081E08093680280916C
:1005D0006002811103C081E0809360028091580223
:1005E000811103C081E080935802809150028111F3
:1005F00003C081E08093500280914802811103C0C2
:1006000081E08093480208958F929F92AF92BF92AB
:10061000EF92FF920F931F93CF93DF93EC018B0127
:1006200049015A01FB01E080FE2DF370FF2E20E00E
:1006300030E0A901C501B40109D218160CF440C07C
:1006400020E030E0A901C501B4014AD187FD3AC0DC
:1006500080E094E0F99EF0011124E759FE4FE80F85
:10066000F11D9081219620E0C330D10518F4CA59BC
:10067000DE4F2881292349F0E694E694E1FE02C08A
:1006800092FD03C0E4FE02C095FD90E0292F220FE9
:10069000220F822BF8018083892F8873A9F4977029
:1006A00081E020E009F480E0922FDF91CF911F914B
:1006B0000F91FF90EF90BF90AF909F908F90089513
:1006C00081E0C7CF82E0C5CF8FEF9FEFEECF40E84C
:1006D00055E260E070E090E080E000C026E08AE94A
:1006E00091E0C1C31F920F920FB60F9211242F9366
:1006F0003F934F935F936F937F938F939F93AF93AA
:10070000BF93EF93FF9386E09FEF909385008093D4
:10071000840032D0FF91EF91BF91AF919F918F9163
:100720007F916F915F914F913F912F910F900FBEED
:100730000F901F90189586E09FEF9093850080930F
:100740008400AFE6B0E08C918E7F8C93E0E8F0E01F
:1007500080818C7F8083E1E8F0E08081877E8083E8
:1007600080818360808380818B7F80838C91816096
:100770008C93089581E0089580918E0191E0980F07
:1007800090938E01882349F021E030E0309390016E
:1007900020938F0180938E0108957894CDDCF89496
:1007A00080918E018150F6CFCF93DF9310928E020D
:1007B00010928D0299D18BDFC0916401D0916501B7
:1007C000198218824CDEF894B6DF81E028813981E5
:1007D000232B09F080E080938D02789478948091A7
:1007E0008D02811107C0D0DEF89490E080E0DF91A7
:1007F000CF91089581E028813981232B09F480E08D
:1008000080938E0290918E0281E0911180E080931E
:100810008D02B0DFE4CF5058BB27AA270ED0DCC032
:10082000CDD030F0D2D020F031F49F3F11F41EF43F
:10083000C2C00EF4E095E7FBB8C0E92FDED080F32C
:10084000BA17620773078407950718F071F49EF5CD
:10085000F6C00EF4E0950B2EBA2FA02D0B01B901B6
:1008600090010C01CA01A0011124FF27591B99F026
:10087000593F50F4503E68F11A16F040A22F232F32
:10088000342F4427585FF3CF469537952795A79582
:10089000F0405395C9F77EF41F16BA0B620B730B29
:1008A000840BBAF09150A1F0FF0FBB1F661F771F9A
:1008B000881FC2F70EC0BA0F621F731F841F48F44F
:1008C000879577956795B795F7959E3F08F0B3CFD5
:1008D0009395880F08F09927EE0F979587950895BF
:1008E00040D008F481E00895E89409C097FB3EF4F5
:1008F00090958095709561957F4F8F4F9F4F99236D
:10090000A9F0F92F96E9BB279395F69587957795EA
:100910006795B795F111F8CFFAF4BB0F11F460FFAA
:100920001BC06F5F7F4F8F4F9F4F16C0882311F002
:1009300096E911C0772321F09EE8872F762F05C016
:10094000662371F096E8862F70E060E02AF09A95B1
:10095000660F771F881FDAF7880F9695879597F9A6
:100960000895990F0008550FAA0BE0E8FEEF161640
:100970001706E807F907C0F012161306E407F50793
:1009800098F0621B730B840B950B39F40A2661F007
:10099000232B242B252B21F408950A2609F4A140AA
:1009A000A6958FEF811D811D089597F99F6780E8B7
:1009B00070E060E008959FEF80EC089500240A94B1
:1009C0001616170618060906089500240A9412162A
:1009D0001306140605060895092E0394000C11F45D
:1009E000882352F0BB0F40F4BF2B11F460FF04C00A
:1009F0006F5F7F4F8F4F9F4F089557FD9058440F63
:100A0000551F59F05F3F71F04795880F97FB991F6D
:100A100061F09F3F79F0879508951216130614062A
:100A2000551FF2CF4695F1DF08C0161617061806B7
:100A3000991FF1CF86957105610508940895E89492
:100A4000BB2766277727CB0197F908958ADF08F43B
:100A50008FEF08951F920F920FB60F9211242F93CC
:100A60003F938F939F93AF93BF9380919201909107
:100A70009301A0919401B09195013091910123E0EF
:100A8000230F2D3758F50196A11DB11D209391011B
:100A90008093920190939301A0939401B093950158
:100AA0008091960190919701A0919801B091990140
:100AB0000196A11DB11D8093960190939701A0937B
:100AC0009801B0939901BF91AF919F918F913F9100
:100AD0002F910F900FBE0F901F90189526E8230FAF
:100AE0000296A11DB11DD2CF789484B5826084BDD9
:100AF00084B5816084BD85B5826085BD85B5816022
:100B000085BDEEE6F0E0808181608083E1E8F0E081
:100B10001082808182608083808181608083E0E8B0
:100B2000F0E0808181608083E1EBF0E0808184608F
:100B30008083E0EBF0E0808181608083EAE7F0E091
:100B400080818460808380818260808380818160F5
:100B500080838081806880831092C10008958330F3
:100B600081F028F4813099F08230A9F0089587301F
:100B7000A9F08830C9F08430B1F4809180008F7D75
:100B800003C0809180008F7780938000089584B5A2
:100B90008F7784BD089584B58F7DFBCF8091B000A1
:100BA0008F778093B00008958091B0008F7DF9CF4A
:100BB000CF93DF9390E0FC01E458FF4F24918057DE
:100BC0009F4FFC0184918823C9F090E0880F991F02
:100BD000FC01E854FF4FA591B491FC01E255FF4F91
:100BE000C591D49161110DC09FB7F8948C91209557
:100BF00082238C938881282328839FBFDF91CF9104
:100C00000895623051F49FB7F8943C91822F8095FB
:100C100083238C93E8812E2BEFCF8FB7F894EC9140
:100C20002E2B2C938FBFEACF1F93CF93DF93282FC8
:100C300030E0F901E859FF4F8491F901E458FF4F82
:100C4000D491F901E057FF4FC491CC23A1F0162FA6
:100C5000811185DFEC2FF0E0EE0FFF1FE255FF4F13
:100C6000A591B4918FB7F894EC91111108C0D0956B
:100C7000DE23DC938FBFDF91CF911F910895DE2B90
:100C8000F8CFCF93DF93282F30E0F901E859FF4FD9
:100C90008491F901E458FF4FD491F901E057FF4FD7
:100CA000C491CC2399F081115ADFEC2FF0E0EE0FC4
:100CB000FF1FEC55FF4FA591B491EC91ED2381E01E
:100CC00090E009F480E0DF91CF91089580E090E01A
:100CD000FACFFC01918D228D892F90E0805C9F4F8F
:100CE000821B91098F7399270895FC01918D828D44
:100CF000981731F0828DE80FF11D858D90E00895F1
:100D00008FEF9FEF0895FC01918D828D981761F010
:100D1000A28DAE0FBF2FB11D5D968C91928D9F5FFE
:100D20009F73928F90E008958FEF9FEF0895FC01DD
:100D3000538D448D252F30E0842F90E0821B930B40
:100D4000541710F0CF96089501970895FC01A48DD3
:100D5000A80FB92FB11DA35ABF4F2C91848D90E0DD
:100D600001968F739927848FA689B7892C93A089C0
:100D7000B1898C91837080648C93938D848D98134A
:100D800006C00288F389E02D80818F7D80830895DD
:100D9000CF93DF93EC01888D8823B1F0AA89BB89BA
:100DA000E889F9898C9185FD03C0808186FD0CC09E
:100DB0000FB607FCF7CF8C9185FFF2CF808185FFBE
:100DC000EDCFCE01C3DFEACFDF91CF910895EF924F
:100DD000FF920F931F93CF93DF93EC0181E0888FF5
:100DE0009B8D8C8D98131AC0E889F989808185FFC5
:100DF00015C09FB7F894EE89FF896083E889F98967
:100E000080818370806480839FBF81E090E0DF9168
:100E1000CF911F910F91FF90EF900895F62E0B8DBB
:100E200010E00F5F1F4F0F731127E02E8C8D8E1176
:100E30000BC00FB607FCFACFE889F989808185FFDE
:100E4000F5CFCE0183DFF2CFEB8DEC0FFD2FF11D3F
:100E5000E35AFF4FF0829FB7F8940B8FEA89FB8922
:100E600080818062D0CFCF92DF92EF92FF921F936A
:100E7000CF93DF93EC016A017B01122FE889F98996
:100E800082E08083C11481EED806E104F10499F078
:100E900060E079E08DE390E0A7019601F5D0215064
:100EA00031094109510956954795379527952115DF
:100EB00080E1380790F0E889F989108260E874E8E9
:100EC0008EE190E0A7019601DFD021503109410960
:100ED00051095695479537952795EC85FD853083C3
:100EE000EE85FF852083188EEC89FD891083EA89C1
:100EF000FB89808180618083EA89FB8980818860A9
:100F00008083EA89FB89808180688083EA89FB8904
:100F100080818F7D8083DF91CF911F91FF90EF9033
:100F2000DF90CF9008951F920F920FB60F92112469
:100F30002F938F939F93EF93FF93E091AA01F091EA
:100F4000AB018081E091B001F091B10182FD1BC045
:100F500090818091B3018F5F8F732091B4018217CC
:100F600041F0E091B301F0E0E656FE4F958F80939B
:100F7000B301FF91EF919F918F912F910F900FBE31
:100F80000F901F9018958081F4CF1F920F920FB68B
:100F90000F9211242F933F934F935F936F937F93FF
:100FA0008F939F93AF93BF93EF93FF938AE991E061
:100FB000CDDEFF91EF91BF91AF919F918F917F9186
:100FC0006F915F914F913F912F910F900FBE0F90B6
:100FD0001F901895EAE9F1E01382128288EE93E0FF
:100FE000A0E0B0E084839583A683B7838DE791E08A
:100FF0009183808385EC90E09587848784EC90E0F2
:101000009787868780EC90E0918B808B81EC90E0D5
:10101000938B828B82EC90E0958B848B86EC90E0B6
:10102000978B868B118E128E138E148E0895AF922D
:10103000BF92CF92DF92EF92FF920F931F93CF93C5
:10104000DF936C017B018B01040F151FEB015E0127
:10105000AE18BF08C017D10759F06991D601ED91BC
:10106000FC910190F081E02DC6010995892B79F75B
:10107000C501DF91CF911F910F91FF90EF90DF900D
:10108000CF90BF90AF900895A1E21A2EAA1BBB1B70
:10109000FD010DC0AA1FBB1FEE1FFF1FA217B30744
:1010A000E407F50720F0A21BB30BE40BF50B661F5A
:1010B000771F881F991F1A9469F76095709580951E
:1010C00090959B01AC01BD01CF010895EE0FFF1F6C
:0C10D0000590F491E02D0994F894FFCFF6
:1010DC00000000000000803F000000400000404085
:1010EC00000080400000A0400000C0400000E04034
:1010FC00000000000000803F000000400000404065
:10110C00000080400000A0400000C0400000E04013
:10111C00076F12833A0000E040000000000000005E
:10112C003F0000803F0000FA4300007A43000000BB
:10113C00000000018C01383F07000420001000085B
:10114C0000020100000000000000000000E706178C
:0C115C00089706C80669068306750600A1
:00000001FF
