:100000005CC000007FC000007DC000007BC000001D
:1000100079C0000077C0000075C0000073C0000008
:1000200071C000006FC000006DC000006BC0000018
:1000300069C0000023C2000065C0000063C000006A
:1000400018C300005FC0000055C5000085C5000052
:1000500059C0000057C0000055C0000053C0000048
:1000600051C000004FC00000000000080002010065
:100070000003040700000000000000000102040863
:100080001020408001020408102001020408102002
:10009000040404040404040402020202020203032E
:1000A0000303030300000000250028002B000000CC
:1000B0000000240027002A00D10511241FBECFEF25
:1000C000D8E0DEBFCDBF11E0A0E0B1E0EAEAFCE09D
:1000D00002C005900D92A835B107D9F722E0A8E536
:1000E000B1E001C01D92AD34B207E1F710E0CDE5FB
:1000F000D0E003C02197FE01D0D5CC35D107D1F790
:1001000059D2D1C57DCF611101C061C36130E9F31E
:1001100062E0FBCF662311F061E095C360E0FDCFA4
:10012000FC0191E020915C0130915D01232B09F0ED
:1001300090E09183089580915C0190915D0101961A
:10014000843F21E0920728F490935D0180935C0145
:10015000089510925D0110925C010895CF93E09193
:100160004A0284E0E89FF0011124E050FF4FC1E013
:1001700020912001309121014091220150912301D1
:1001800060817181828193814CD28111C0E06C2F9A
:100190008AE0C0DFE0914A0284E0E89FF001112488
:1001A000E050FF4FC1E020912401309125014091A2
:1001B000260150912701608171818281938131D222
:1001C0008111C0E06C2F89E0A5DFE0914A0284E054
:1001D000E89FF0011124E050FF4FC1E02091280179
:1001E0003091290140912A0150912B016081718148
:1001F0008281938116D28111C0E06C2F88E08ADF62
:10020000E0914A0284E0E89FF0011124E050FF4FA2
:10021000C1E020912C0130912D0140912E0150918F
:100220002F016081718182819381FBD18111C0E0B6
:100230006C2F87E06FDFE0914A0284E0E89FF001D5
:100240001124E050FF4FC1E0209130013091310185
:10025000409132015091330160817181828193819B
:10026000E0D18111C0E06C2F86E054DFE0914A02BA
:1002700084E0E89FF0011124E050FF4FC1E020919D
:100280003401309135014091360150913701608140
:10029000718182819381C5D18111C0E06C2F85E08D
:1002A00039DFE0914A0284E0E89FF0011124E05038
:1002B000FF4FC1E0209138013091390140913A015E
:1002C00050913B016081718182819381AAD181111A
:1002D000C0E06C2F84E01EDFE0914A0284E0E89FDA
:1002E000F0011124E050FF4FC1E020913C0130911A
:1002F0003D0140913E0150913F01608171818281B9
:1003000093818FD18111C0E06C2F83E003DF809156
:100310004A0290914301890F80934A0290914001D3
:10032000981720F48091410180934A02CF9108955B
:10033000CF92DF92EF92FF921F93CF93DF93CAE0A9
:10034000D2E08091420180934A0218AEC12CD12C98
:100350007601C394C9AEDAAEEBAEFCAE61E08AE0E2
:10036000D2DE11E01DAF18AAC9AADAAAEBAAFCAA2C
:1003700061E089E0C8DE1DAB18A6C9A6DAA6EBA627
:10038000FCA661E088E0BFDE1DA718A2C9A2DAA220
:10039000EBA2FCA261E087E0B6DE1DA3188EC98E39
:1003A000DA8EEB8EFC8E61E086E0ADDE1D8F188A62
:1003B000C98ADA8AEB8AFC8A61E085E0A4DE1D8BBB
:1003C0001886C986DA86EB86FC8661E084E09BDECF
:1003D0001D871882C982DA82EB82FC8261E083E0A9
:1003E00092DE1D83DF91CF911F91FF90EF90DF9000
:1003F000CF90089580914202811103C081E08093E3
:10040000420280913A02811103C081E080933A0256
:1004100080913202811103C081E080933202809189
:100420002A02811103C081E080932A028091220276
:10043000811103C081E08093220280911A02811110
:1004400003C081E080931A0280911202811103C0DF
:1004500081E08093120280910A02811103C081E041
:1004600080930A02089540E855E260E070E090E071
:1004700080E000C026E08DE691E0DCC21F920F9282
:100480000FB60F9211242F933F934F935F936F9367
:100490007F938F939F93AF93BF93EF93FF9386E0E8
:1004A0009FEF909385008093840032D0FF91EF916D
:1004B000BF91AF919F918F917F916F915F914F917C
:1004C0003F912F910F900FBE0F901F90189586E0CF
:1004D0009FEF9093850080938400AFE6B0E08C910D
:1004E0008E7F8C93E0E8F0E080818C7F8083E1E870
:1004F000F0E08081877E808380818360808380813B
:100500008B7F80838C9181608C93089581E0089526
:10051000CF93DF9300D0CDB7DEB78091600191E03B
:10052000980F90936001882369F021E030E03093C8
:10053000630120936201809360010F900F90DF911F
:10054000CF910895CE010196EBDD7894F4DDF89417
:10055000809160018150809360018A81882389F0B5
:1005600080915F0191E0980F90935F01882349F09B
:1005700021E030E0309363012093620180935F01BA
:10058000DCCF80915F018823C1F2809161018111EC
:10059000D4CF81E0809361017894E0DDF89480917C
:1005A0005F01815080935F01809161018150809350
:1005B0006101C3CFCF93DF9310924C0210924B0294
:1005C000A2D051DFC0914401D09145011982188217
:1005D000AFDEF8947CDF81E028813981232B09F09C
:1005E00080E080934B027894789480914B02811143
:1005F00007C000DFF89490E080E0DF91CF9108958C
:1006000081E028813981232B09F480E080934C021A
:1006100090914C0281E0911180E080934B0276DF53
:10062000E4CF03D008F481E00895990F0008550F36
:10063000AA0BE0E8FEEF16161706E807F907C0F068
:1006400012161306E407F50798F0621B730B840B70
:10065000950B39F40A2661F0232B242B252B21F44A
:1006600008950A2609F4A140A6958FEF811D811DEA
:1006700008951F920F920FB60F9211242F933F935C
:100680008F939F93AF93BF93809165019091660183
:10069000A0916701B09168013091640123E0230FBC
:1006A0002D3758F50196A11DB11D2093640180934B
:1006B000650190936601A0936701B09368018091F2
:1006C000690190916A01A0916B01B0916C01019652
:1006D000A11DB11D8093690190936A01A0936B01E4
:1006E000B0936C01BF91AF919F918F913F912F91EA
:1006F0000F900FBE0F901F90189526E8230F0296BB
:10070000A11DB11DD2CF789484B5826084BD84B51B
:10071000816084BD85B5826085BD85B5816085BDFC
:10072000EEE6F0E0808181608083E1E8F0E0108215
:10073000808182608083808181608083E0E8F0E056
:10074000808181608083E1EBF0E080818460808340
:10075000E0EBF0E0808181608083EAE7F0E0808177
:1007600084608083808182608083808181608083D7
:100770008081806880831092C1000895833081F069
:1007800028F4813099F08230A9F008958730A9F0DB
:100790008830C9F08430B1F4809180008F7D03C02F
:1007A000809180008F7780938000089584B58F7743
:1007B00084BD089584B58F7DFBCF8091B0008F7785
:1007C0008093B00008958091B0008F7DF9CFCF93D2
:1007D000DF9390E0FC01E458FF4F249180579F4F36
:1007E000FC0184918823C9F090E0880F991FFC01D7
:1007F000E255FF4FA591B491FC01EC55FF4FC59117
:10080000D49161110DC09FB7F8948C9120958223EB
:100810008C938881282328839FBFDF91CF910895EF
:10082000623051F49FB7F8943C91822F80958323D6
:100830008C93E8812E2BEFCF8FB7F894EC912E2B71
:100840002C938FBFEACF1F93CF93DF93282F30E0F5
:10085000F901E859FF4F8491F901E458FF4FD49111
:10086000F901E057FF4FC491CC23A1F0162F81115D
:1008700085DFEC2FF0E0EE0FFF1FEC55FF4FA59149
:10088000B4918FB7F894EC91111108C0D095DE2384
:10089000DC938FBFDF91CF911F910895DE2BF8CFAE
:1008A000FC01918D228D892F90E0805C9F4F821BEF
:1008B00091098F7399270895FC01918D828D981766
:1008C00031F0828DE80FF11D858D90E008958FEF56
:1008D0009FEF0895FC01918D828D981761F0A28D94
:1008E000AE0FBF2FB11D5D968C91928D9F5F9F7350
:1008F000928F90E008958FEF9FEF0895FC01538D44
:10090000448D252F30E0842F90E0821B930B5417E9
:1009100010F0CF96089501970895FC01A48DA80FBB
:10092000B92FB11DA35ABF4F2C91848D90E0019631
:100930008F739927848FA689B7892C93A089B18951
:100940008C91837080648C93938D848D981306C0F2
:100950000288F389E02D80818F7D80830895CF9375
:10096000DF93EC01888D8823B1F0AA89BB89E889DF
:10097000F9898C9185FD03C0808186FD0CC00FB67E
:1009800007FCF7CF8C9185FFF2CF808185FFEDCFFB
:10099000CE01C3DFEACFDF91CF910895EF92FF92AE
:1009A0000F931F93CF93DF93EC0181E0888F9B8D92
:1009B0008C8D98131AC0E889F989808185FF15C04C
:1009C0009FB7F894EE89FF896083E889F98980816F
:1009D0008370806480839FBF81E090E0DF91CF913E
:1009E0001F910F91FF90EF900895F62E0B8D10E060
:1009F0000F5F1F4F0F731127E02E8C8D8E110BC0D0
:100A00000FB607FCFACFE889F989808185FFF5CF19
:100A1000CE0183DFF2CFEB8DEC0FFD2FF11DE35AFA
:100A2000FF4FF0829FB7F8940B8FEA89FB89808192
:100A30008062D0CFCF92DF92EF92FF921F93CF933D
:100A4000DF93EC016A017B01122FE889F98982E0CA
:100A50008083C11481EED806E104F10499F060E0CE
:100A600079E08DE390E0A7019601F5D0215031099E
:100A7000410951095695479537952795211580E1EC
:100A8000380790F0E889F989108260E874E88EE10F
:100A900090E0A7019601DFD02150310941095109A9
:100AA0005695479537952795EC85FD853083EE85DE
:100AB000FF852083188EEC89FD891083EA89FB89E4
:100AC000808180618083EA89FB898081886080835E
:100AD000EA89FB89808180688083EA89FB8980813B
:100AE0008F7D8083DF91CF911F91FF90EF90DF90FA
:100AF000CF9008951F920F920FB60F9211242F934B
:100B00008F939F93EF93FF93E0917D01F0917E018E
:100B10008081E0918301F091840182FD1BC090816E
:100B2000809186018F5F8F7320918701821741F03A
:100B3000E0918601F0E0E359FE4F958F80938601A6
:100B4000FF91EF919F918F912F910F900FBE0F907A
:100B50001F9018958081F4CF1F920F920FB60F92BD
:100B600011242F933F934F935F936F937F938F93B2
:100B70009F93AF93BF93EF93FF938DE691E0CDDE0C
:100B8000FF91EF91BF91AF919F918F917F916F9165
:100B90005F914F913F912F910F900FBE0F901F903B
:100BA0001895EDE6F1E01382128288EE93E0A0E062
:100BB000B0E084839583A683B7838AE491E0918330
:100BC000808385EC90E09587848784EC90E097871C
:100BD000868780EC90E0918B808B81EC90E0938B0A
:100BE000828B82EC90E0958B848B86EC90E0978BE7
:100BF000868B118E128E138E148E0895AF92BF9233
:100C0000CF92DF92EF92FF920F931F93CF93DF93D8
:100C10006C017B018B01040F151FEB015E01AE1807
:100C2000BF08C017D10759F06991D601ED91FC9129
:100C30000190F081E02DC6010995892B79F7C50156
:100C4000DF91CF911F910F91FF90EF90DF90CF90A8
:100C5000BF90AF900895A1E21A2EAA1BBB1BFD0105
:100C60000DC0AA1FBB1FEE1FFF1FA217B307E4078B
:100C7000F50720F0A21BB30BE40BF50B661F771FE3
:100C8000881F991F1A9469F76095709580959095C3
:100C90009B01AC01BD01CF010895EE0FFF1F059030
:0A0CA000F491E02D0994F894FFCFC1
:100CAA00000000000000803F0000004000004040BB
:100CBA00000080400000A0400000C0400000E0406A
:100CCA00000000000000803F00000040000040409B
:100CDA00000080400000A0400000C0400000E0404A
:100CEA0007000001580100000000CE04FE057E0442
:080CFA00AF0450046A045C041D
:00000001FF
