:100000005CC000007FC000007DC000007BC000001D
:1000100079C0000077C0000075C0000073C0000008
:1000200071C000006FC000006DC000006BC0000018
:1000300069C000008DC1000065C0000063C0000001
:10004000B4C200005FC00000F1C4000021C5000080
:1000500059C0000057C0000055C0000053C0000048
:1000600051C000004FC00000000000080002010065
:100070000003040700000000000000000102040863
:100080001020408001020408102001020408102002
:10009000040404040404040402020202020203032E
:1000A0000303030300000000250028002B000000CC
:1000B0000000240027002A006D0511241FBECFEF89
:1000C000D8E0DEBFCDBF11E0A0E0B1E0E2EEFBE0A2
:1000D00002C005900D92A833B107D9F722E0A8E33A
:1000E000B1E001C01D92AD32B207E1F710E0CDE5FD
:1000F000D0E003C02197FE016CD5CC35D107D1F7F4
:10010000C3D16DC57DCF611101C0FDC26130E9F37E
:1001100062E0FBCF662311F061E031C360E0FDCF08
:10012000FC0191E020913C0130913D01232B09F02D
:1001300090E09183089580913C0190913D0101965A
:10014000843F21E0920728F490933D0180933C0185
:10015000089510923D0110923C010895CF93DF93D2
:10016000CDB7DEB728970FB6F894DEBF0FBECDBF70
:1001700019821A821B821C821D821E821F8218868F
:10018000E0912A0284E0E89FF0011124E050FF4F43
:100190006081718182819381AED16C0F7D1F81E07E
:1001A000FB01808369818AE0B5DF6A8189E0B2DF83
:1001B0006B8188E0AFDF6C8187E0ACDF6D8186E02A
:1001C000A9DF6E8185E0A6DF6F8184E0A3DF68850B
:1001D00083E0A0DF80912A0290912301890F809310
:1001E0002A0290912001981720F480912101809398
:1001F0002A0228960FB6F894DEBF0FBECDBFDF915E
:10020000CF910895CF92DF92EF92FF921F93CF93F9
:10021000DF93CAEED1E08091220180932A0218AECA
:10022000C12CD12C7601C394C9AEDAAEEBAEFCAED4
:1002300061E08AE068DF11E01DAF18AAC9AADAAA56
:10024000EBAAFCAA61E089E05EDF1DAB18A6C9A697
:10025000DAA6EBA6FCA661E088E055DF1DA718A290
:10026000C9A2DAA2EBA2FCA261E087E04CDF1DA3E9
:10027000188EC98EDA8EEB8EFC8E61E086E043DF4D
:100280001D8F188AC98ADA8AEB8AFC8A61E085E0C8
:100290003ADF1D8B1886C986DA86EB86FC8661E01C
:1002A00084E031DF1D871882C982DA82EB82FC820A
:1002B00061E083E028DF1D83DF91CF911F91FF90E4
:1002C000EF90DF90CF90089580912202811103C0BA
:1002D00081E08093220280911A02811103C081E0A3
:1002E00080931A0280911202811103C081E08093F1
:1002F000120280910A02811103C081E080930A02F8
:1003000080910202811103C081E0809302028091FA
:10031000FA01811103C081E08093FA018091F2011A
:10032000811103C081E08093F2018091EA01811183
:1003300003C081E08093EA01089540E855E260E05F
:1003400070E090E080E000C026E08DE491E00EC314
:100350001F920F920FB60F9211242F933F934F933A
:100360005F936F937F938F939F93AF93BF93EF931D
:10037000FF9386E09FEF909385008093840032D0B6
:10038000FF91EF91BF91AF919F918F917F916F916D
:100390005F914F913F912F910F900FBE0F901F9043
:1003A000189586E09FEF9093850080938400AFE6D8
:1003B000B0E08C918E7F8C93E0E8F0E080818C7FC0
:1003C0008083E1E8F0E08081877E808380818360A4
:1003D000808380818B7F80838C9181608C93089552
:1003E00081E00895CF93DF9300D0CDB7DEB7809141
:1003F000400191E0980F90934001882369F021E03B
:1004000030E03093430120934201809340010F90EC
:100410000F90DF91CF910895CE01019681DE7894FF
:100420008ADEF894809140018150809340018A8156
:10043000882389F080913F0191E0980F90933F01CC
:10044000882349F021E030E03093430120934201BA
:1004500080933F01DCCF80913F018823C1F28091DE
:1004600041018111D4CF81E080934101789476DEFF
:10047000F89480913F01815080933F018091410128
:10048000815080934101C3CFCF93DF9310922C0210
:1004900010922B02D4D051DFC0912401D0912501BC
:1004A00019821882AFDEF8947CDF81E028813981DF
:1004B000232B09F080E080932B027894789480912C
:1004C0002B02811107C000DFF89490E080E0DF91FB
:1004D000CF91089581E028813981232B09F480E0B0
:1004E00080932C0290912C0281E0911180E0809306
:1004F0002B0276DFE4CF04D06894B11150C0089588
:1005000033D088F09F5790F0B92F9927B751A0F0BA
:10051000D1F0660F771F881F991F1AF0BA95C9F797
:1005200012C0B13081F03AD0B1E0089537C0672FE2
:10053000782F8827B85F39F0B93FCCF38695779547
:100540006795B395D9F73EF4909580957095619530
:100550007F4F8F4F9F4F089557FD9058440F551F61
:1005600059F05F3F71F04795880F97FB991F61F035
:100570009F3F79F087950895121613061406551FAC
:10058000F2CF4695F1DF08C0161617061806991F18
:10059000F1CF86957105610508940895E894BB270D
:1005A00066277727CB0197F908951F920F920FB610
:1005B0000F9211242F933F938F939F93AF93BF93E9
:1005C0008091450190914601A0914701B091480169
:1005D0003091440123E0230F2D3758F50196A11DDA
:1005E000B11D209344018093450190934601A0934F
:1005F0004701B09348018091490190914A01A0912F
:100600004B01B0914C010196A11DB11D8093490190
:1006100090934A01A0934B01B0934C01BF91AF91CD
:100620009F918F913F912F910F900FBE0F901F9030
:10063000189526E8230F0296A11DB11DD2CF7894FC
:1006400084B5826084BD84B5816084BD85B58260D7
:1006500085BD85B5816085BDEEE6F0E08081816075
:100660008083E1E8F0E01082808182608083808175
:1006700081608083E0E8F0E0808181608083E1EB4D
:10068000F0E0808184608083E0EBF0E08081816035
:100690008083EAE7F0E080818460808380818260EB
:1006A00080838081816080838081806880831092D4
:1006B000C1000895833081F028F4813099F08230B0
:1006C000A9F008958730A9F08830C9F08430B1F4DA
:1006D000809180008F7D03C0809180008F77809310
:1006E0008000089584B58F7784BD089584B58F7D8B
:1006F000FBCF8091B0008F778093B00008958091F8
:10070000B0008F7DF9CFCF93DF9390E0FC01E458E8
:10071000FF4F249180579F4FFC0184918823C9F09B
:1007200090E0880F991FFC01E255FF4FA591B4910D
:10073000FC01EC55FF4FC591D49161110DC09FB7DD
:10074000F8948C91209582238C9388812823288388
:100750009FBFDF91CF910895623051F49FB7F89415
:100760003C91822F809583238C93E8812E2BEFCFB1
:100770008FB7F894EC912E2B2C938FBFEACF1F9359
:10078000CF93DF93282F30E0F901E859FF4F849190
:10079000F901E458FF4FD491F901E057FF4FC4919C
:1007A000CC23A1F0162F811185DFEC2FF0E0EE0FA6
:1007B000FF1FEC55FF4FA591B4918FB7F894EC91C2
:1007C000111108C0D095DE23DC938FBFDF91CF914C
:1007D0001F910895DE2BF8CFFC01918D228D892F7A
:1007E00090E0805C9F4F821B91098F739927089539
:1007F000FC01918D828D981731F0828DE80FF11DEB
:10080000858D90E008958FEF9FEF0895FC01918D05
:10081000828D981761F0A28DAE0FBF2FB11D5D962E
:100820008C91928D9F5F9F73928F90E008958FEFD0
:100830009FEF0895FC01538D448D252F30E0842FC8
:1008400090E0821B930B541710F0CF9608950197F8
:100850000895FC01A48DA80FB92FB11DA35ABF4F55
:100860002C91848D90E001968F739927848FA689AF
:10087000B7892C93A089B1898C91837080648C9303
:10088000938D848D981306C00288F389E02D8081B2
:100890008F7D80830895CF93DF93EC01888D88232B
:1008A000B1F0AA89BB89E889F9898C9185FD03C0DB
:1008B000808186FD0CC00FB607FCF7CF8C9185FFB9
:1008C000F2CF808185FFEDCFCE01C3DFEACFDF918C
:1008D000CF910895EF92FF920F931F93CF93DF93E1
:1008E000EC0181E0888F9B8D8C8D98131AC0E8896C
:1008F000F989808185FF15C09FB7F894EE89FF893B
:100900006083E889F98980818370806480839FBFD8
:1009100081E090E0DF91CF911F910F91FF90EF90D8
:100920000895F62E0B8D10E00F5F1F4F0F731127E8
:10093000E02E8C8D8E110BC00FB607FCFACFE88924
:10094000F989808185FFF5CFCE0183DFF2CFEB8D72
:10095000EC0FFD2FF11DE35AFF4FF0829FB7F89483
:100960000B8FEA89FB8980818062D0CFCF92DF92A2
:10097000EF92FF921F93CF93DF93EC016A017B010B
:10098000122FE889F98982E08083C11481EED806AC
:10099000E104F10499F060E079E08DE390E0A701D3
:1009A0009601F5D0215031094109510956954795D5
:1009B00037952795211580E1380790F0E889F98966
:1009C000108260E874E88EE190E0A7019601DFD024
:1009D0002150310941095109569547953795279579
:1009E000EC85FD853083EE85FF852083188EEC89AC
:1009F000FD891083EA89FB89808180618083EA898F
:100A0000FB89808188608083EA89FB898081806896
:100A10008083EA89FB8980818F7D8083DF91CF91FC
:100A20001F91FF90EF90DF90CF9008951F920F924B
:100A30000FB60F9211242F938F939F93EF93FF93F1
:100A4000E0915D01F0915E018081E0916301F091A0
:100A5000640182FD1BC09081809166018F5F8F735E
:100A600020916701821741F0E0916601F0E0E35BBD
:100A7000FE4F958F80936601FF91EF919F918F912B
:100A80002F910F900FBE0F901F9018958081F4CF7B
:100A90001F920F920FB60F9211242F933F934F93F3
:100AA0005F936F937F938F939F93AF93BF93EF93D6
:100AB000FF938DE491E0CDDEFF91EF91BF91AF9177
:100AC0009F918F917F916F915F914F913F912F9166
:100AD0000F900FBE0F901F901895EDE4F1E0138278
:100AE000128288EE93E0A0E0B0E084839583A68331
:100AF000B7838AE291E09183808385EC90E09587CB
:100B0000848784EC90E09787868780EC90E0918BD7
:100B1000808B81EC90E0938B828B82EC90E0958BC4
:100B2000848B86EC90E0978B868B118E128E138EC1
:100B3000148E0895AF92BF92CF92DF92EF92FF9200
:100B40000F931F93CF93DF936C017B018B01040FF5
:100B5000151FEB015E01AE18BF08C017D10759F091
:100B60006991D601ED91FC910190F081E02DC601D3
:100B70000995892B79F7C501DF91CF911F910F91CD
:100B8000FF90EF90DF90CF90BF90AF900895A1E2DB
:100B90001A2EAA1BBB1BFD010DC0AA1FBB1FEE1FF7
:100BA000FF1FA217B307E407F50720F0A21BB30B42
:100BB000E40BF50B661F771F881F991F1A9469F7BE
:100BC00060957095809590959B01AC01BD01CF011A
:100BD0000895EE0FFF1F0590F491E02D0994F8940D
:020BE000FFCF45
:100BE200000000000000803F000000400000404084
:100BF200000080400000A0400000C0400000E04033
:100C0200070000013801000000006A049A051A0476
:080C12004B04EC030604F80397
:00000001FF
